:100000001AC029C028C027C026C062C024C023C08F
:1000100022C021C020C01FC01EC01DC01CC00000C7
:10002000000038000202020202020102040810204D
:1000300001030000040011241FBECFE5D2E0DEBFA3
:10004000CDBF20E0A0E6B0E001C01D92A936B20706
:10005000E1F788D0D5C0D4CF90E0FC01E05DFF4F40
:100060003491FC01E65DFF4F2491FC01EC5DFF4FF4
:10007000E491EE23B9F0332329F03130A1F48AB5AD
:100080008F778ABDF0E0EE0FFF1FE25EFF4FA59174
:10009000B4918FB7611118C0F894EC9120952E237C
:1000A0002C938FBF0895323019F48AB58F7DE9CF34
:1000B000333021F480B78F7D80BFE4CF343011F727
:1000C0008CB58F7D8CBDDECFF894EC912E2BE8CFD4
:1000D0001F920F920FB60F9211242F933F938F937D
:1000E0009F93AF93BF938091650090916600A0911C
:1000F0006700B09168003091640026E0230F2D372F
:1001000068F129E8230F0396A11DB11D2093640017
:100110008093650090936600A0936700B093680099
:100120008091600090916100A0916200B0916300A5
:100130000196A11DB11D8093600090936100A09372
:100140006200B0936300BF91AF919F918F913F91F7
:100150002F910F900FBE0F901F9018950296A11D22
:10016000B11DD4CF812C912C5401B19939C089EEA5
:10017000881683E09806A104B10494F160E083E05E
:100180006BDF4BE9C42E4FE0D42EE12CF12C53EE63
:10019000452E53E0552E612C712C61E082E05CDF2E
:1001A000440C551C84E0481A5108C2010197F1F72C
:1001B00060E082E051DFCC0CDD1C84E0C81AD1087D
:1001C000C6010197F1F789EE881683E09806A1042D
:1001D000B1045CF68FEF881A980AA80AB80AC5CF4E
:1001E00061E083E039DF23EEC22E23E0D22EE12C42
:1001F000F12C3BE9432E3FE0532E612C712CCDCFE7
:04020000F894FFCFA0
:00000001FF
